{
  "contractName": "LiquidityManager",
  "abi": [
    {
      "inputs": [
        {
          "internalType": "address payable",
          "name": "_uniswapV2Router02Address",
          "type": "address"
        }
      ],
      "stateMutability": "nonpayable",
      "type": "constructor"
    },
    {
      "anonymous": false,
      "inputs": [
        {
          "indexed": true,
          "internalType": "address",
          "name": "previousOwner",
          "type": "address"
        },
        {
          "indexed": true,
          "internalType": "address",
          "name": "newOwner",
          "type": "address"
        }
      ],
      "name": "OwnershipTransferred",
      "type": "event"
    },
    {
      "inputs": [],
      "name": "owner",
      "outputs": [
        {
          "internalType": "address",
          "name": "",
          "type": "address"
        }
      ],
      "stateMutability": "view",
      "type": "function",
      "constant": true
    },
    {
      "inputs": [],
      "name": "renounceOwnership",
      "outputs": [],
      "stateMutability": "nonpayable",
      "type": "function"
    },
    {
      "inputs": [
        {
          "internalType": "address",
          "name": "newOwner",
          "type": "address"
        }
      ],
      "name": "transferOwnership",
      "outputs": [],
      "stateMutability": "nonpayable",
      "type": "function"
    },
    {
      "inputs": [],
      "name": "uniswapV2Router02Address",
      "outputs": [
        {
          "internalType": "address payable",
          "name": "",
          "type": "address"
        }
      ],
      "stateMutability": "view",
      "type": "function",
      "constant": true
    },
    {
      "inputs": [
        {
          "internalType": "address",
          "name": "_tokenA",
          "type": "address"
        },
        {
          "internalType": "address",
          "name": "_tokenB",
          "type": "address"
        },
        {
          "internalType": "uint256",
          "name": "_amountADesired",
          "type": "uint256"
        },
        {
          "internalType": "uint256",
          "name": "_amountBDesired",
          "type": "uint256"
        },
        {
          "internalType": "uint256",
          "name": "_amountAMin",
          "type": "uint256"
        },
        {
          "internalType": "uint256",
          "name": "_amountBMin",
          "type": "uint256"
        },
        {
          "internalType": "address",
          "name": "_to",
          "type": "address"
        },
        {
          "internalType": "uint256",
          "name": "_deadline",
          "type": "uint256"
        }
      ],
      "name": "addLiquidity",
      "outputs": [
        {
          "internalType": "uint256",
          "name": "amountA",
          "type": "uint256"
        },
        {
          "internalType": "uint256",
          "name": "amountB",
          "type": "uint256"
        },
        {
          "internalType": "uint256",
          "name": "liquidity",
          "type": "uint256"
        }
      ],
      "stateMutability": "nonpayable",
      "type": "function"
    }
  ],
  "bytecode": "0x608060405234801561001057600080fd5b506040516109593803806109598339818101604052602081101561003357600080fd5b8101908080519060200190929190505050600061005461013960201b60201c565b9050806000806101000a81548173ffffffffffffffffffffffffffffffffffffffff021916908373ffffffffffffffffffffffffffffffffffffffff1602179055508073ffffffffffffffffffffffffffffffffffffffff16600073ffffffffffffffffffffffffffffffffffffffff167f8be0079c531659141344cd1fd0a4f28419497f9722a3daafe3b4186f6b6457e060405160405180910390a35080600160006101000a81548173ffffffffffffffffffffffffffffffffffffffff021916908373ffffffffffffffffffffffffffffffffffffffff16021790555050610141565b600033905090565b610809806101506000396000f3fe608060405234801561001057600080fd5b50600436106100575760003560e01c8063715018a61461005c5780638da5cb5b14610066578063e8e337001461009a578063f2fde38b14610173578063f983e38f146101b7575b600080fd5b6100646101eb565b005b61006e610358565b604051808273ffffffffffffffffffffffffffffffffffffffff16815260200191505060405180910390f35b61014f60048036036101008110156100b157600080fd5b81019080803573ffffffffffffffffffffffffffffffffffffffff169060200190929190803573ffffffffffffffffffffffffffffffffffffffff16906020019092919080359060200190929190803590602001909291908035906020019092919080359060200190929190803573ffffffffffffffffffffffffffffffffffffffff16906020019092919080359060200190929190505050610381565b60405180848152602001838152602001828152602001935050505060405180910390f35b6101b56004803603602081101561018957600080fd5b81019080803573ffffffffffffffffffffffffffffffffffffffff16906020019092919050505061058d565b005b6101bf61077f565b604051808273ffffffffffffffffffffffffffffffffffffffff16815260200191505060405180910390f35b6101f36107a5565b73ffffffffffffffffffffffffffffffffffffffff16610211610358565b73ffffffffffffffffffffffffffffffffffffffff161461029a576040517f08c379a00000000000000000000000000000000000000000000000000000000081526004018080602001828103825260208152602001807f4f776e61626c653a2063616c6c6572206973206e6f7420746865206f776e657281525060200191505060405180910390fd5b600073ffffffffffffffffffffffffffffffffffffffff1660008054906101000a900473ffffffffffffffffffffffffffffffffffffffff1673ffffffffffffffffffffffffffffffffffffffff167f8be0079c531659141344cd1fd0a4f28419497f9722a3daafe3b4186f6b6457e060405160405180910390a360008060006101000a81548173ffffffffffffffffffffffffffffffffffffffff021916908373ffffffffffffffffffffffffffffffffffffffff160217905550565b60008060009054906101000a900473ffffffffffffffffffffffffffffffffffffffff16905090565b600080600061038e6107a5565b73ffffffffffffffffffffffffffffffffffffffff166103ac610358565b73ffffffffffffffffffffffffffffffffffffffff1614610435576040517f08c379a00000000000000000000000000000000000000000000000000000000081526004018080602001828103825260208152602001807f4f776e61626c653a2063616c6c6572206973206e6f7420746865206f776e657281525060200191505060405180910390fd5b600160009054906101000a900473ffffffffffffffffffffffffffffffffffffffff1673ffffffffffffffffffffffffffffffffffffffff1663e8e337008c8c8c8c8c8c8c8c6040518963ffffffff1660e01b8152600401808973ffffffffffffffffffffffffffffffffffffffff1681526020018873ffffffffffffffffffffffffffffffffffffffff1681526020018781526020018681526020018581526020018481526020018373ffffffffffffffffffffffffffffffffffffffff16815260200182815260200198505050505050505050606060405180830381600087803b15801561052457600080fd5b505af1158015610538573d6000803e3d6000fd5b505050506040513d606081101561054e57600080fd5b81019080805190602001909291908051906020019092919080519060200190929190505050809350819450829550505050985098509895505050505050565b6105956107a5565b73ffffffffffffffffffffffffffffffffffffffff166105b3610358565b73ffffffffffffffffffffffffffffffffffffffff161461063c576040517f08c379a00000000000000000000000000000000000000000000000000000000081526004018080602001828103825260208152602001807f4f776e61626c653a2063616c6c6572206973206e6f7420746865206f776e657281525060200191505060405180910390fd5b600073ffffffffffffffffffffffffffffffffffffffff168173ffffffffffffffffffffffffffffffffffffffff1614156106c2576040517f08c379a00000000000000000000000000000000000000000000000000000000081526004018080602001828103825260268152602001806107ae6026913960400191505060405180910390fd5b8073ffffffffffffffffffffffffffffffffffffffff1660008054906101000a900473ffffffffffffffffffffffffffffffffffffffff1673ffffffffffffffffffffffffffffffffffffffff167f8be0079c531659141344cd1fd0a4f28419497f9722a3daafe3b4186f6b6457e060405160405180910390a3806000806101000a81548173ffffffffffffffffffffffffffffffffffffffff021916908373ffffffffffffffffffffffffffffffffffffffff16021790555050565b600160009054906101000a900473ffffffffffffffffffffffffffffffffffffffff1681565b60003390509056fe4f776e61626c653a206e6577206f776e657220697320746865207a65726f2061646472657373a26469706673582212207dc0641d13519af9c576d3b590837ca7c2d0a194cd36a7f09009fa0480375d6064736f6c634300060c0033",
  "immutableReferences": {},
  "source": "// SPDX-License-Identifier: MIT\npragma solidity ^0.6.6;\n\nimport './interfaces/UniswapV2Router02.sol';\nimport '@openzeppelin/contracts/access/Ownable.sol';\n\ncontract LiquidityManager is Ownable {\n\n    address payable public uniswapV2Router02Address;\n\n    constructor(address payable _uniswapV2Router02Address) public {\n        uniswapV2Router02Address = _uniswapV2Router02Address;\n    }\n\n    /**\n     * @notice Add liquidity for tokens in Uniswap.\n     *\n     * @param _tokenA\t        A pool token\n     * @param _tokenB\t        A pool token\n     * @param _amountADesired   The amount of tokenA to add as liquidity if the B/A price is <= amountBDesired/amountADesired (A depreciates)\n     * @param _amountBDesired   The amount of tokenB to add as liquidity if the A/B price is <= amountADesired/amountBDesired (B depreciates)\n     * @param _amountAMin\t    Bounds the extent to which the B/A price can go up before the transaction reverts Must be <= amountADesired\n     * @param _amountBMin\t    Bounds the extent to which the A/B price can go up before the transaction reverts Must be <= amountBDesired\n     * @param _to\t            Recipient of the liquidity tokens\n     * @param _deadline\t        Unix timestamp after which the transaction will revert\n     *\n     * @return amountA\t        The amount of tokenA sent to the pool\n     * @return amountB\t        The amount of tokenB sent to the pool\n     * @return liquidity\t    The amount of liquidity tokens minted\n     */\n    function addLiquidity(\n        address _tokenA,  \n        address _tokenB,  \n        uint _amountADesired,  \n        uint _amountBDesired,  \n        uint _amountAMin,  \n        uint _amountBMin,  \n        address _to,  \n        uint _deadline\n    ) external onlyOwner returns (\n        uint amountA, \n        uint amountB, \n        uint liquidity\n    ) {\n        (amountA, amountB, liquidity) = UniswapV2Router02(uniswapV2Router02Address).addLiquidity(\n            _tokenA,\n            _tokenB, \n            _amountADesired,\n            _amountBDesired,\n            _amountAMin,\n            _amountBMin, \n            _to,\n            _deadline\n        );\n    }\n}\n",
  "sourcePath": "/home/erion/dev/consensys/uniswap-demo/contracts/LiquidityManager.sol",
  "compiler": {
    "name": "solc",
    "version": "0.6.12+commit.27d51765.Emscripten.clang"
  },
  "schemaVersion": "3.4.3",
  "updatedAt": "2021-10-14T19:24:11.981Z",
  "networkType": "ethereum",
  "devdoc": {
    "kind": "dev",
    "methods": {
      "addLiquidity(address,address,uint256,uint256,uint256,uint256,address,uint256)": {
        "params": {
          "_amountADesired": "The amount of tokenA to add as liquidity if the B/A price is <= amountBDesired/amountADesired (A depreciates)",
          "_amountAMin": "Bounds the extent to which the B/A price can go up before the transaction reverts Must be <= amountADesired",
          "_amountBDesired": "The amount of tokenB to add as liquidity if the A/B price is <= amountADesired/amountBDesired (B depreciates)",
          "_amountBMin": "Bounds the extent to which the A/B price can go up before the transaction reverts Must be <= amountBDesired",
          "_deadline": "Unix timestamp after which the transaction will revert",
          "_to": "Recipient of the liquidity tokens",
          "_tokenA": "A pool token",
          "_tokenB": "A pool token"
        },
        "returns": {
          "amountA": "        The amount of tokenA sent to the pool",
          "amountB": "        The amount of tokenB sent to the pool",
          "liquidity": "    The amount of liquidity tokens minted"
        }
      },
      "owner()": {
        "details": "Returns the address of the current owner."
      },
      "renounceOwnership()": {
        "details": "Leaves the contract without owner. It will not be possible to call `onlyOwner` functions anymore. Can only be called by the current owner. NOTE: Renouncing ownership will leave the contract without an owner, thereby removing any functionality that is only available to the owner."
      },
      "transferOwnership(address)": {
        "details": "Transfers ownership of the contract to a new account (`newOwner`). Can only be called by the current owner."
      }
    },
    "version": 1
  },
  "userdoc": {
    "kind": "user",
    "methods": {
      "addLiquidity(address,address,uint256,uint256,uint256,uint256,address,uint256)": {
        "notice": "Add liquidity for tokens in Uniswap."
      }
    },
    "version": 1
  }
}